:020000040800F2
:10000000E007002045620008116100081361000844
:1000100000000000000000000000000000000000E0
:100020000000000000000000000000000B2200089B
:1000300000000000000000003322000833610008C7
:10004000433200089B3200080334000827380008B8
:10005000B33800087B5F0008156100081F610008C5
:10006000FB5F00083B610008036200080F620008A4
:100070004362000855620008576200085962000890
:100080005B6200085D6200085F6200086162000850
:100090006362000865620008676200086962000820
:1000A0006B6200086D6200086F62000871620008F0
:1000B000736200087562000877620008E02252004F
:1000C00080180268914203D280680028F9D17047F5
:1000D0004368D2189142F7D2704718480168002946
:1000E0000ED1802149028160090941600021C94384
:1000F000C160016104214161114A1160114901602F
:100100000120704730B407230C0008341C4201D191
:10011000002304E008240D000835641B2340C9189F
:10012000D21A8161C260012313434B602823091D49
:100130008B5002490969C16130BC7047B803002087
:10014000540200206859883CF8B584B004000D00C2
:100150001700E81900906A680126324243D12868E6
:1001600003210A4000D19EE23F184242AD182269A5
:100170000392954200D294E26269954200D1E8E090
:10018000C0081F2860D8A9680291E968019103900E
:100190000198854201D101F0A7FF0298854201D163
:1001A00001F0A2FF6868072188430399C9008842CB
:1001B00001D001F099FF200028300399C9004018B0
:1001C0000299814205D0226991423AD3C968A94275
:1001D00037D10199029A914224D12168039A0120D2
:1001E00090408143216020690390009803998842E0
:1001F00000D256E200984068810700D5ACE1009932
:10020000A269914200D0B4E0E068C019E060A56145
:1002100006436E606069854200D044E20020606160
:10022000A06040E2814206D008462169884208D396
:100230008068A84205D10198D06002980199886031
:10024000D1E701F051FFCEE7A8690290E968A94221
:1002500010D0A8680191039988422CD3C168A942A3
:1002600029D101998968A94225D10199C1600199D3
:10027000886022E02A00143210680190002805D11D
:100280002A00103210680190002816D0019801E071
:100290000A001068010014310B68002BF8D101002E
:1002A00010310B68002BF3D101900398824202D3E6
:1002B0000020106001E001F017FF0298002892D0A2
:1002C000E9699820400020188A0082181068854249
:1002D0000AD1019800282BD163680120884083430C
:1002E0006360002010607EE70298216988421CD379
:1002F0000069A8420198029915D108610198002867
:1003000000D170E72069019981429AD30299019A3C
:100310009161296900290FD081420BD301980161B5
:100320000198886108E04861E8E701F0DDFEE5E753
:100330001060E7E701F0D8FE6869002800D152E7B5
:100340002169884200D27CE7019948610199816165
:1003500049E7009840680140032900D043E7A760BF
:1003600000984068B043009948603E436E60EF518A
:1003700099E16269914207D1A068C019A0606561E6
:1003800006436E6028508EE1072188433F18C0085D
:100390001F284AD80099896802910099C96801917B
:1003A000039000980199884201D101F09DFE0098C8
:1003B0000299884201D101F097FE00984068072118
:1003C00088430399C900884201D001F08DFE2000C6
:1003D00028300399C90040180299814208D0226947
:1003E000914200D2ADE0C968009A914200D0A8E0E5
:1003F0000199029A914206D12168039A0120904006
:10040000814321609FE0814209D0084621698842EA
:1004100000D296E080680099884200D091E001986F
:10042000D0600298019988608DE000988069029000
:100430000098C0680099884212D00099896801909C
:10044000039881422DD3C868009A904229D101981F
:100450008068904225D10198C8600198816022E0AF
:10046000009A143210680190002805D1009A1032C9
:1004700010680190002816D0019801E00A00106869
:10048000010014310B68002BF8D1010010310B680A
:10049000002BF3D101900398824202D30020106018
:1004A00001E001F021FE029800284CD00098C169BB
:1004B0009820400020188A008218009813689842FB
:1004C0000AD1019800282CD1636801208840834319
:1004D00063600020106036E00298216988421DD3D5
:1004E0000069009988420198029915D10861019824
:1004F000002828D020690199814222D30299019ACB
:1005000091610099096900290FD081420BD30198AC
:1005100001610198886108E04861E8E701F0E4FDC5
:10052000E5E71060E6E701F0DFFD0098406900288C
:1005300009D02169884204D30199486101998161F8
:1005400001E001F0D1FD012038436860EF5160699E
:10055000854208D1A760A6E0B04300994860012019
:1005600038436860EF51F8081F2828D8029020000F
:1005700028300299C9004018009000980190102F6F
:1005800001D201F0B1FD206802990200CA40324058
:1005900003D18E400643266008E0009880682169F8
:1005A000884201D3019001E001F09EFD0098856032
:1005B0000198C5600198A8600098E86073E0380A67
:1005C00001D1002227E03104884201D31F2222E01A
:1005D000FF21C9434118090C0822114001918840AC
:1005E00032494118090C04221140009188403049D9
:1005F0004118090C022211400E22019BD21A009BC5
:10060000D21A521A8840C00B10184100C01D3A007F
:10061000C24032408A1898204000201891004018AB
:100620000090EA6100206861286161680B00D34096
:10063000334007D196400E436660009805600098ED
:10064000A8611FE0009909681F2A01D13A0006E05D
:10065000192352089B1A3A009A4000E031004B6877
:100660000726B343BB4210D00B001033D60FB600A1
:100670009B1952001E68002EF0D12069834210D3CE
:100680001D60A961ED60AD600DE08A682369994243
:1006900007D39A4205D3D5608D60AA60E960A8614E
:1006A00001E001F021FD05B0F0BD000000F0FFFF0A
:1006B00000C0FFFFF0B587B0070000BF00BFF52FF7
:1006C00000D33CE20B2F01D2102702E00B370720AA
:1006D0008743F80856490968C1408A0749D0012272
:1006E0008A4380180190524C200028300199C9009B
:1006F00040180090009885680198C7006868072135
:100700008843B84201D001F0EFFCAE680098854202
:1007100001D101F0E9FCB54201D101F0E5FC6868C6
:1007200007218843B84201D001F0DEFC0098B042B6
:1007300006D120680121019A9140884320600CE095
:100740002069864207D3F068A84204D100988660E9
:100750000098F06001E001F0C7FC032038436860B6
:10076000281DC019016801220A4302602C0000F014
:100770009DFF2F4CA268BA4200D3F2E3002900D1BA
:10078000AFE00122824052008140534213430B40AC
:1007900058421840401E010B10221140C840420927
:1007A00008231A40D040830804252B40D840450830
:1007B000022635400095009DE8408507ED0F891819
:1007C000C918009A89184919E840081802902000B1
:1007D00028300299C9004618B06800900298C000FD
:1007E000019000984068072188430199884201D010
:1007F00001F07AFC00988568B04201D101F074FCE8
:100800000098A84201D101F06FFC009840680721D0
:1008100088430199884201D001F066FCAE4209D1BB
:1008200020680121029A9140884320600EE000BFB9
:10083000980000202069854206D3E8680099884224
:1008400002D1B560EE6001E001F04EFC0198C01BE2
:1008500002900320384300994860012502982843FC
:100860000099091DC8510098C01905900298059972
:100870000850A0680490C6081F2E01D901F034FC6E
:100880000498002826D06069019003962000283043
:10089000F10047183E000498102801D201F024FC12
:1008A000206803990200CA402A4003D18D400543C5
:1008B000256007E0B8682169884201D3060001E09D
:1008C00001F012FC0198B8600198F0600198866010
:1008D0000198C7600298A06005986061009C00F0D4
:1008E000E5FE6168002900D15AE348420840401EF5
:1008F000010B10221140C840420908231A40D04081
:10090000830804252B40D840450802263540019530
:10091000019DE8408507ED0F009598256D0065194C
:100920008918C918019A8918009A8918D04008189E
:10093000800028580500416807229143CE1B07E03C
:10094000080041689143C91BB14201D20E00050065
:1009500001690029F4D140690028F2D1206985425B
:1009600000D2E9E068689043F119884201D001F0B3
:10097000BBFBE8190590854200D3DDE0A869019032
:10098000E968A94210D0A8680091216988422CD357
:10099000C168A94229D100998968A94225D1009945
:1009A000C1600099886022E02A001432106800902B
:1009B000002805D12A00103210680090002816D0B7
:1009C000009801E00A001068010014310B68002B48
:1009D000F8D1010010310B68002BF3D10090206991
:1009E000824202D30020106001E001F07DFB0198FB
:1009F000002847D0E86998214900611882008918C9
:100A00000A6895420AD1009A002A2AD16268012315
:100A100083409A4362600020086033E001982169B6
:100A200088421BD30069A8420098019914D108613B
:100A30000098002826D020690099814220D301998E
:100A4000009A9161296900290FD081420BD3009847
:100A500001610098886108E04861E9E701F044FB22
:100A6000E6E70A60E7E701F03FFB6869002809D084
:100A70002169884204D3009948610099816101E0AD
:100A800001F032FB0320102E09D2F11908436860EF
:100A9000281D4018016801220A43026046E03843DD
:100AA000686001203043291DC85105988651A0680F
:100AB0000490C00800901F2801D901F015FB04988C
:100AC000002830D060690190009803902000283001
:100AD0000399C900401800900098029004981028CB
:100AE00001D201F001FB21680120039A0B00D340E1
:100AF000034003D190400843206008E000988068DC
:100B00002169884201D3029001E001F0EDFA0198D9
:100B10000099886001980299C860029801998860DC
:100B200000980199C860A660059860612C0008349F
:100B300000D116E200F0BDFD01F0D6FA11E23F202F
:100B4000C043874202D30027FF430AE20B37072046
:100B500087439B4840680390002800D101E20024AD
:100B600078420090380A25D080214902884201D37A
:100B70001F201FE0FF21C9434118090C0822114022
:100B80008840904A8218120C04231A4090408E4BE1
:100B9000C3181B0C02252B400E25691A891AC91A85
:100BA0009840C00B08184100C01D3A00C240D00751
:100BB000C00F08180190854802900199890041589A
:100BC00000292BD001981F2801D13A0005E01920F7
:100BD000019A5208801A3A0082400023009800E0EF
:100BE00052004D680726B543ED1B854207D34D697A
:100BF0001031D60FB6008959002D07D003E00C0044
:100C0000280006D0F3E78D4200D02B000029E7D161
:100C10001900009000293AD1002C3DD10120019902
:100C200088404000424202430399114000D198E1BC
:100C300048420840401E010B10221140C8404209A2
:100C400008231A40D040830804252B40D84045088B
:100C5000022635400195019DE8408507ED0F029E73
:100C60008918C918019A89184919E840081880009C
:100C700031580CE011004A689A43D21B824201D2DB
:100C800010000C000A69002AF4D10090496900297B
:100C900002D000980723EEE7002C00D161E1009814
:100CA00047498968C91B884200D35AE14448006912
:100CB000844200D240E70098C01903906068072181
:100CC00088430399884201D001F00EFAE519AC423D
:100CD00000D331E7A0690190E668A6420DD0A06874
:100CE00037490969884226D3C168A14223D1B16836
:100CF000A14220D1C660B0601FE020001430066819
:100D0000002E07D1200010300668002E15D001E01B
:100D100008000668310014310A68002AF8D1310051
:100D200010310A68002AF3D125490969884202D3A3
:100D30000021016001E001F0D7F90198002849D0B5
:100D4000E0690299820089180A6894420AD1002E4B
:100D500027D11B4A536801268640B34353600020C5
:100D6000086037E0019816490969884216D300697E
:100D7000A042019810D10661002E2BD010480069C6
:100D8000864225D30199B161216900290DD08142A4
:100D900009D331618E6108E04661EDE701F0A4F905
:100DA000EAE70E60EAE701F09FF96069002811D0D8
:100DB0000349096988420BD3706186610AE000BF6C
:100DC0009800002000F0FFFF00C0FFFFC8010020D6
:100DD00001F08AF901200321009A102A09D2039A0E
:100DE00011436160211D039A89180A681043086045
:100DF000B4E03943616000990143221DD15100994B
:100E000069500099C9081F2929D8029197490A00F9
:100E10002832029BDB00D2180092009A01920A68E5
:100E2000029B1600DE40064003D198401043086044
:100E300008E0009880680969884201D3019001E0C8
:100E400001F052F9009885600198C5600198210071
:100E50000831C851009821000C31C8517EE000993A
:100E6000090A01D1002227E00204914201D31F2286
:100E700022E0FF22D2438A18120C08231A40039260
:100E800091407B4A8A18120C04231A400192914027
:100E9000784A8A18120C02231A400E23039E9B1BC9
:100EA000019E9B1B9B1A9140C90B59184A00009B3D
:100EB000C91DCB400340D21802999300C918EA61BA
:100EC000002326001436F35126001036F351674BE9
:100ED0005B681E00D640064005D190401843634A27
:100EE00050600D601EE009681F2A009B01D1009828
:100EF00005E019205208801A8340F8E731004A685B
:100F00000726B243824215D00A001032DE0FB60027
:100F100092195B001668002EF0D154480069824295
:100F20001AD31560A96120000C30C551200008308B
:100F3000C55113E088684D4A126991420CD3904222
:100F40000AD3C5608D6022000832D05120000C30D9
:100F5000C1510020A86101E001F0C6F8083400D0BA
:100F6000A7E342488468BC421AD3E11B42690125C9
:100F70000323102908D3D61981600D43141DE551B0
:100F800071503B43536008E0002686602343536062
:100F9000111D09190B681D430D604661140085E39E
:100FA000324CE068874200D274E3334D2868002851
:100FB00001D1FFF792F8A96878182F30491E8843AD
:100FC000874200D374E3D821490061188968002959
:100FD00009D0D8225200A2581018824200D367E3E9
:100FE000814200D264E301F0A3F8002800D15FE35E
:100FF000016800910021C943884200D158E3D821FB
:1010000049006158009A8918D8225200A1501B4902
:1010100009681B4A1268914200D21100D82252007E
:10102000A2185160A16900292CD12169002901D0A1
:10103000884200D220611061009951610021D16184
:101040002A6862620022D243226222002832926021
:10105000D2601300083353611361891C10321F29B9
:10106000F5D9009A283A01002AE000BF9800002034
:1010700000F0FFFF00C0FFFFB8030020480200207F
:101080004C020020E0214900621800E09268002A2A
:101090001AD011685368C9188842F7D10500107B2F
:1010A000000712D4A169136899420ED350681B1827
:1010B00099420AD2009BC0185060E068009A8218DA
:1010C0002000FFF71FF8E2E205002069854200D208
:1010D0002561E020400020180099691800E0806830
:1010E000002800D1D3E102688A42F8D1017B0907C8
:1010F00000D5CCE1114605604268009BD2184260E1
:1011000028000830400701D1039507E008202A0095
:101110000832801A4007400F2818039007200A0061
:101120000832024205D008220B000833D21A1040C0
:10113000091800910398C019049005460098039976
:10114000411AC91B019103213943039A5160854219
:1011500001D300F0C9FF012600984068304001D15A
:1011600000F0C2FF0198102801D200F0BDFF0098E6
:10117000A169884207D1E06801994018E060A56143
:1011800006436E6081E16169884208D1A0680199D7
:1011900040186561A06006436E60285075E14068A4
:1011A0008107890F012900D0CCE0072188430690F0
:1011B000C0081F2844D80099896802910099CF6817
:1011C00005900098B84201D100F08EFF0098029976
:1011D000884201D100F088FF0098406807218843C9
:1011E0000599C900884201D000F07EFF2000283018
:1011F0000599C90040180299814208D0226991429C
:1012000000D295E0C968009A914200D090E002991E
:101210008F4206D12168059A0120904081432160C8
:1012200088E0874207D02069874200D280E0B86812
:10123000009988427CD10298C7600298B86079E032
:101240000098806902900098C76887420DD0806836
:101250002169884225D3C168009A914221D1B96899
:1012600091421ED1C760B8601DE014300768002F9E
:1012700007D1009810300768002F14D001E0080053
:101280000768390014310A68002AF8D13900103192
:101290000A68002AF3D12169884202D30021016043
:1012A00001E000F021FF0298002843D00098C169B6
:1012B0009820400020188A008218009813689842ED
:1012C00009D1002F26D163680120884083436360E1
:1012D000002010602EE002982169884217D300692F
:1012E00000998842029810D10761002F22D020690E
:1012F00087421DD30299B9610099096900290DD06F
:10130000814209D339618F6108E04761EDE700F060
:10131000EBFEEAE71760EAE700F0E6FE00984069B6
:10132000002807D02169884202D37861876101E0F3
:1013300000F0DAFE0098069940180090019806998E
:101340004018019000984068B043009948600198A7
:1013500030436860019828500198C0081F2826D89B
:101360000290200028300299C90040180090009F88
:101370000198102801D200F0B7FE206802990200FF
:10138000CA40324003D18E400643266008E00098F0
:1013900080682169884201D3070001E000F0A4FEC3
:1013A00000988560FD60AF600098E8606DE001988E
:1013B000000A25D03104884201D31F2020E0FF21FC
:1013C000C9434118090C0822114000918840BB49CB
:1013D0004118090C042211408840B94A8218120CA5
:1013E00002231A400E23009FDB1B591A891A9040D2
:1013F000C00B08184100019AC01DC2403240881835
:1014000098214900611882008918E86100236B6106
:101410002B6162681700C740374004D186401643ED
:1014200066600D601DE009681F28019E01D10198CA
:1014300005E019224008101A8640F8E739004A688A
:101440000727BA43824211D00A001032F70FBF00BB
:10145000D21976001768002FF0D12069824212D38A
:101460001560A961ED600498A8600EE088682269A3
:10147000914208D3904206D3C560049A8A60A8605E
:10148000E960AB6101E000F02FFE039C0EE1A6696C
:1014900031002000FEF712FE016840680818029033
:1014A0002738410701D1002003E00821081A40072E
:1014B000400F029908182F3831001031884201D2AC
:1014C000019600E0019001981830049000200390EC
:1014D000009A283A29002000FEF714FE01980830EF
:1014E000400701D000F000FE1B20019948600198E0
:1014F0000830E02149006118102200F02FFE7148E9
:101500000561009941610021C16101990831816142
:10151000029A07230498039900E0001D4360491CC8
:10152000050008359542F8D3012901DC00F0DCFD07
:101530000198B04200D1AAE0811B301D401802681A
:1015400001239A4302600120084370607150C8086B
:101550001F2826D8019020002830019AD200801838
:101560000090009D102901D200F0BEFD21680120ED
:10157000019A0B00D340034003D190400843206000
:1015800008E0009880682169884201D3050001E0E5
:1015900000F0AAFD00988660EE60B5600098F060EB
:1015A00075E0080A1A4629D01304984201D31F2077
:1015B00024E0FF23DB43C3181B0C08252B400293B8
:1015C00098403E4BC3181B0C04252B4001939840B8
:1015D0003B4BC3181B0C02252B4000930E23029D8E
:1015E0005B1B019D5B1B009D5B1BA840C00B18187B
:1015F0004300C01D0D00C5401540581998235B00DD
:10160000E31885005B190093F06100237361336177
:1016100063681D00C540154007D182401A436260CF
:10162000009806600098B0611FE0009A12681F28B9
:1016300001D1080006E0192340081B1A0800984051
:1016400000E02A0053680725AB438B4210D01300FB
:101650001033C50FAD005B1940001D68002DF0D19F
:101660002069834211D31E60B261F660B6600EE05D
:10167000906821698A4208D3884206D3C660966082
:10168000B060F2600020B06101E000F02DFDE06884
:1016900087420DD2C01BE060A169CA19A261012373
:1016A000034353600320384348600C00083400E0D3
:1016B000002400BF00BF200007B0F0BD00F0FFFF16
:1016C00000C0FFFF48020020002800D17047F8B595
:1016D00084B00838050000BF00BF474C2069854230
:1016E00000D2DBE26868032103220240012A00D114
:1016F000D4E2C708FF00EA1900920126304242D125
:101700002A68084000D1C5E2BF1850422D18206950
:10171000854200D2C2E26069854200D108E1D0086A
:10172000202800D37EE0A9680291E9680191039026
:101730000198854201D100F0D7FC0298854201D181
:1017400000F0D2FC6868072188430399C9008842E9
:1017500001D000F0C9FC200028300399C9004018CE
:101760000299814205D02269914258D3C968A942A1
:1017700055D10199029A914242D12168039A0120E0
:101780009040814321600098854200D386E2406802
:10179000304200D182E2810700D5CCE10099A269F4
:1017A000914200D0D4E0E068C019A561E060064332
:1017B0006E6061698D4202D100216161A160E169C1
:1017C000814200D366E20D480068002801D1FEF78F
:1017D00084FCA169002900D15CE2E068292802D3D9
:1017E0002000FEF76BFCE069E168884200D351E21B
:1017F0000020C043E0614DE298000020B8030020C3
:10180000814206D008462169884208D38068A842F0
:1018100005D10198D060029801998860B3E700F083
:1018200063FCB0E7A8690290E968A94210D0A868F3
:101830000191216988422CD3C168A94229D101991B
:101840008968A94225D10199C1600199886022E087
:101850002A00143210680190002805D12A001032A5
:1018600010680190002816D0019801E00A00106865
:10187000010014310B68002BF8D1010010310B6806
:10188000002BF3D101902069824202D30020106026
:1018900001E000F029FC0298002800D173E7E96913
:1018A0009820400020188A008218106885420AD1CA
:1018B000019800282BD1636801208840834363602E
:1018C000002010605FE70298216988421CD30069FC
:1018D000A8420198029915D108610198002800D109
:1018E00051E720690199814299D30299019A916146
:1018F000296900290FD081420BD301980161019819
:10190000886108E04861E8E700F0EEFBE5E7106079
:10191000E7E700F0E9FB6869002800D133E72169B7
:10192000884200D27BE701994861019981612AE7E9
:10193000009840680140032900D024E7A760009880
:101940004068B043009948603E436E60EF51A1E1AA
:101950006269914207D1A068C0196561A060064321
:101960006E60285096E1072188433F18C008202860
:101970004AD20099896802910099C968019103903F
:1019800000980199884201D100F0AEFB00980299BD
:10199000884201D100F0A8FB0098406807218843E5
:1019A0000399C900884201D000F09EFB2000283036
:1019B0000399C90040180299814208D022699142D6
:1019C00000D2ADE0C968009A914200D0A8E0019928
:1019D000029A914206D12168039A012090408143E6
:1019E00021609FE0814209D008462169884200D2E7
:1019F00096E080680099884200D091E00198D0601C
:101A00000298019988608DE00098806902900098A2
:101A1000C0680099884212D00099896801902069B5
:101A200081422DD3C868009A904229D101988068DC
:101A3000904225D10198C8600198816022E0009A07
:101A4000143210680190002805D1009A10321068F5
:101A50000190002816D0019801E00A0010680100EA
:101A600014310B68002BF8D1010010310B68002BEA
:101A7000F3D101902069824202D30020106001E07E
:101A800000F032FB029800284CD00098C1699820E1
:101A9000400020188A0082180098136898420AD1E2
:101AA000019800282CD1636801208840834363603B
:101AB0000020106036E00298216988421DD3006939
:101AC000009988420198029915D10861019800286F
:101AD00028D020690199814222D30299019A91610B
:101AE0000099096900290FD081420BD30198016147
:101AF0000198886108E04861E8E700F0F5FAE5E759
:101B00001060E6E700F0F0FA00984069002809D07C
:101B10002169884204D3019948610199816101E0FA
:101B200000F0E2FA012038436860EF5160698542B5
:101B300008D1A760AEE0B043009948600120384367
:101B40006860EF51F808202828D202902000283041
:101B50000299C9004018009000980190102F01D2FE
:101B600000F0C2FA206802990200CA40324003D154
:101B70008E400643266008E000988068216988420C
:101B800001D3019001E000F0AFFA00988560019860
:101B9000C5600198A8600098E8607BE0380A27D00B
:101BA0003104884201D31F2022E0FF21C94341189C
:101BB000090C08221140019188403A494118090C4A
:101BC000042211400091884037494118090C022233
:101BD00011400E22019BD21A009BD21A521A884041
:101BE000C00B10184100C01D3A00C2403240881896
:101BF00098214900611882008918E86100226A6111
:101C00002A6162681300C340334004D18640164302
:101C100066600D601DE009681F2801D1380006E0EC
:101C200019224008121A3800904000E011004A685A
:101C300007239A43BA4210D00A001032C30F9B0008
:101C4000D31840001A68002AF0D12069834211D3CA
:101C50001D60A961ED60AD600EE088682269914267
:101C600008D3904206D3C5608D60A860E96000206B
:101C7000A86101E000F038FA206A401E09D1206214
:101C8000E4204000205800E080680028FCD10020BB
:101C9000C043206200BF00BF05B0F0BD00F024FAD1
:101CA000F8E7000000F0FFFF00C0FFFF38B50200BA
:101CB0000D000024002A0ED014006C4328001043AD
:101CC000000C000407D02000110000F083FAA842A5
:101CD00001D00024E4432000FEF7ECFC050007D00F
:101CE000281F0078800703D02100280000F08EFA1A
:101CF000280032BDF5B585B00C0000200190606869
:101D0000C108C9000F00059A12690492944200D2DA
:101D10009EE183079B0F012B00D199E1E31900930A
:101D2000009B9C4200D393E15A6801252A4200D1CE
:101D30008EE1830712D10698C008202800D289E1DD
:101D40000698001D814200D284E1C44880684000AA
:101D5000069A891A884200D27CE177E106998F427F
:101D600018D37A1A102A00D270E1284001430220C9
:101D7000084360600698211848682843486003209B
:101D800010434860881843681D4345600598FEF776
:101D9000DBF95BE10099059B9B69994218D1059994
:101DA000C9687918069A8A4200D353E1891A2840F3
:101DB00002430220104360600698201842682A43BC
:101DC00042600D434560059A90610598C1603DE110
:101DD000059B5B69994232D1059989687918069A01
:101DE000914200D236E18A1A28400223102A17D3E2
:101DF000069961188E180196019E0096069E06436C
:101E00003343636048682843486015434D60019838
:101E100002600098406801239843009B586009E0E5
:101E2000084303436360201D401801680D430560AB
:101E300000210022059882600598416106E1900723
:101E400000D507E1072082430392B818069988421B
:101E500000D2FFE00699401A02900398C00820289B
:101E60004BD20099896801910099CE68049000983E
:101E7000B04201D100F038F900980199884201D1AF
:101E800000F032F900984068072188430499C9009E
:101E9000884201D000F028F905980499C90040183B
:101EA000019902002832914209D0059A12699142A3
:101EB00000D2A0E0C968009A914200D09BE001994D
:101EC0008E4208D105980168049A01209040814310
:101ED0000598016091E02830864209D00598006994
:101EE000864200D287E0B0680099884200D082E044
:101EF0000198C6600198B0607FE000988069019009
:101F00000098C66886420DD080680499884225D31F
:101F1000C168009A914221D1B16891421ED1C66038
:101F2000B0601DE014300668002E07D10098103014
:101F30000668002E14D001E0080006683100143154
:101F40000A68002AF8D1310010310A68002AF3D15A
:101F50000499884202D30021016001E000F0C4F836
:101F60000198002849D00098C16905988A00801816
:101F70009822520082180098136898420BD1002EC4
:101F80002AD105984368012088408343059843601F
:101F90000020106031E0019805990969884218D342
:101FA000006900998842019811D10661002E24D061
:101FB0000598006986421ED30199B16100990969AB
:101FC00000290DD0814209D331618E6108E046615C
:101FD000ECE700F089F8E9E71660E9E700F084F83B
:101FE00000984069002808D005990969884202D301
:101FF0007061866101E000F077F8022002991029F3
:102000000CD20399791862682A400A431043606031
:10201000201D401801680D43056017E061682940E4
:10202000069A0A43104360600698211848682843BE
:1020300048600298032202434A60029808184268E6
:1020400015434560029A0598FEF77EF8019401E079
:1020500000F04AF8019807B0F0BD0000B803002076
:1020600070B506000D000024002E04D12800FEF7F4
:1020700021FB040034E03F20C043854230D20B2DC9
:1020800001D2102403E02C000B340720844300BF4E
:1020900000BF01232200310008391248FFF72AFE51
:1020A000040000BF00BF002C01D0083418E0280055
:1020B000FEF700FB040013D0301F0068810701D138
:1020C000082100E0042107229043421AAA4200D9C5
:1020D0002A003100200000F05BF83000FFF7F4FA2E
:1020E000200070BD9800002080B5012000F096F817
:1020F00001BD30B501684118446862088A188368D8
:10210000E40704D54C461B1901E0641C09D1914237
:1021100003D00C7864B2491C01E00C3030BD0D785E
:10212000491C1D705B1C002CEFD4641EF7D5EEE734
:1021300007490868002801D0002070470548072299
:102140009043086004499143091A0160704700BF39
:10215000D0030020E7070020E009002070B4103A07
:1021600003D378C9103A78C0FBD2530701D318C9FA
:1021700018C001D508C908C0D20704D30B88038052
:10218000891C801C002A01D50B78037070BC704735
:102190008B0701D18307E1D0124205D00B78491C8F
:1021A0000370401C521EF9D170472E00CA0F00D098
:1021B000494203105A400DD004B500D3404200F00C
:1021C00009F8009AD20701D34942124200D5404291
:1021D00004BD0000094214D088420FD30122030C31
:1021E00001D100041204002300185B418B4200D38C
:1021F0005B1A5241F8D3190010007047010000200B
:10220000704708B500F014F808BDFEE7002200BFD3
:10221000094202D0491E4254FCD1704780B500BF2C
:1022200000BF024A11001820ABBEFBE726000200E7
:102230007047FEE7FDB5B2B03A98049102A93B227F
:10224000885400200D9024A8401C2F900DE0049885
:10225000329A90470490002801D100F001FF0D98B8
:10226000401C0D903398401C33903398017800291E
:1022700010D02529EBD100200790089009900A90F2
:102280000B900C9000210224012014900820129041
:10229000339D05E00D9800F0E5FE08001499014318
:1022A0006D1C28782028F8D023280BD02B2804D0A8
:1022B0002D2804D0302808D00AE02143F0E7080098
:1022C0000421ECE708000821E9E708001021E6E70F
:1022D0002A280FD1349802681068121D349B1A60A6
:1022E0000F90002804D542420F92080004210143B8
:1022F0006D1C12E000200F90654A09E00F9B93428D
:1023000005DA9E00F3185B00181830380F906D1C2A
:1023100028780300303B0A2BF0D328782E2803D0EE
:102320000020C0430E9027E06D1C28782A2808D191
:10233000349800680268001D349B18600E926D1C72
:102340001AE02D2802D12D226D1C00E00022002071
:102350000E900CE0002A09D10E9B4D4EB34205DAD7
:102360009E00F3185B00181830380E906D1C28780A
:102370000300303B0A2BEDD302A801872E783100F1
:1023800041487844FF30C01C00F052FF002801D0C3
:102390006D1C00E0002602A83A214654405C6828E3
:1023A00004D1287868280BD1622005E06C2807D179
:1023B00028786C2804D1712002A93A2288546D1C17
:1023C00015A80690287869460870681C33906846FE
:1023D00002781000253833D01C3800D116E2001FD7
:1023E000022800D812E2133801D100F065FD093847
:1023F00000D10BE2801E01D100F0FBFD401E01D197
:1024000000F0A8FD401E022800D8FFE1001F01D106
:1024100000F0A0FD401F00D152E1401E01D100F0AC
:102420004BFD401E00D1F3E0C01E10D0801E01D134
:1024300000F042FDC01E01D100F03EFD00F0E4FDC1
:10244000252015A908701498079000F0E8FD34982D
:1024500000680468001D349908600594002C00D0C1
:10246000C2E002A83B21405C002800D1B5E0002476
:10247000E44306487844143000F0E4FE201A01D00A
:1024800000F0EEFD00F0CBFD083B00003C3B0000FF
:10249000CBCCCC0C01236A4602A9280000F0ADFE8B
:1024A000002801D000F0DCFD641EF3D13295079DB9
:1024B00015AC002D0FD0329E227802A9300000F01A
:1024C0008BFE002802D4641C6D1EF5D132960028C4
:1024D00001D000F0C5FD3020694608700A9C002C30
:1024E0000DDD329D01236A4602A9280000F085FE19
:1024F000002801D000F0B4FD641EF3D13295059C94
:10250000089D002D0FD0329E227802A9300000F0E5
:1025100063FE002802D4641C6D1EF5D1329600289B
:1025200001D000F09DFD302769460F700B9C002CF8
:102530000DDD329D01236A4602A9280000F05DFEF0
:10254000002801D000F08CFD641EF3D1329505986F
:1025500008994418099D002D0FD0329E227802A9B7
:10256000300000F039FE002802D4641C6D1EF5D145
:102570003296002801D000F073FD684607700C9C6D
:10258000002C0DDD329D01236A4602A9280000F0CF
:1025900034FE002801D000F063FD641EF3D13295B3
:1025A00002A83821405C400700D45EE6202069463E
:1025B00008700198002800DC57E6019C329D012339
:1025C0006A4602A9280000F018FE002801D000F099
:1025D00047FD641EF3D1329547E63F487844FF300B
:1025E000C01F059000F01BFD0E9D002D03D520009F
:1025F00000F04CFE09E02A000021200000F04EFE11
:10260000002801D0001B00E02800089000F007FD22
:10261000349800680268001D349908600020C043A7
:102620000021104002AA03C215A80590069A3C2377
:1026300002A803C8002904D1002802D10E9C002C56
:1026400014D05B1E05072D0F30353A2D08DAD5540E
:1026500000090C072043090904D1002802D105E034
:102660002735F4E7059CD518AC42EAD33C20C01AC4
:102670000890D11805910E99884208DA081A0A9034
:1026800002A8018FAA4A0A40028700F0C8FC00296C
:1026900001D400F0C4FC02A93822895C14220A404B
:1026A000102A01D000F0BBFC0F99079A891A0A9AE8
:1026B000891A081A002801DC00F0B1FC00F0FAFBCE
:1026C00002A83B21415C002908D00024E4434B4888
:1026D0007844FF302930CFE60C3900003A21405CC5
:1026E00062286AD0682819D06A2845D06C2806D09C
:1026F00071284FD0742831D07A2821D06FE03498D7
:1027000000680168001D349A106000297AD1002405
:10271000E4433B487844FF301738ADE6349800680E
:102720000168001D349A1060002905D10024E4439B
:1027300033487844CA309FE60D98088000F06FFC5B
:10274000349800680168001D349A1060002959D13E
:102750000024E4432A487844A6308DE63498006883
:102760000168001D349A106000294BD10024E44315
:10277000234878448A307FE6349800680268001D58
:1027800034990860002A13D10024E4431C4878449B
:102790006E3071E6349800680268001D3499086054
:1027A000002A05D10024E44315487844523063E6FA
:1027B0000D98C11703C200F032FC3498006801681C
:1027C000001D349A1060002905D10024E4430C4810
:1027D00078442C3050E60D98087000F020FC3498B6
:1027E00000680168001D349A106000290AD1002495
:1027F000E4430348784408303EE600BF9C370000BD
:10280000B03700000D98086000F009FC34980368A8
:10281000DB1D072083433498036003CB349D2B607A
:1028200002AB03C32023C80F04D007982D2115AB9A
:1028300019540DE002A8008F204204D007982B21E4
:1028400015AB195404E0C00704D5079815A90B541B
:10285000401C079015A807994318059324AD02A8BA
:10286000C0C868460078202101436846817080789E
:1028700061280BD00E98002801D5062005E005D16F
:1028800068468078672801D114980E9002A803C882
:1028900008004C006415641C0ED109030CD0032001
:1028A0000890613A1A2A03D22249794486310FE00E
:1028B0002149794482310BE0002C0ED100030CD168
:1028C00003200890613A1A2A1DD31C4979446C31BF
:1028D00003221800FFF75CFCA1E301AA02A803C8C9
:1028E00000F0E7FC02AA03C268468078612813D191
:1028F000059830210170811C05916946097861298C
:1029000005D1782104E00E4979443431E0E75821BB
:1029100041700798801C079002A803C892A20CCAB5
:1029200002400B400ED1002A0CD10024002660E1A9
:10293000EFFF0000B4360000B4360000B8360000E7
:10294000B036000068468078612800D099E00E9883
:10295000002801D5212000E0401C13901398401C52
:102960002E90300039000022002300F0B7FC02A8AE
:1029700030C802D28020000645400198001F019017
:1029800024A90A7024A8461C2E98002832DD2E9F08
:1029900020002900002280235B0300F0B8FC29D826
:1029A0001C2200F0CDFC04000D0000F001FD2E9073
:1029B000FF1F002F09DD00F035FD02000B00200095
:1029C000290000F096FD04000D00F01D07212E9A4D
:1029D000002A0ADD491E08D4401E13071B0F03708E
:1029E0001211F5E7401E00220270491EFAD5C61DDD
:1029F000002FCDDC24A82F99711A24AA551C139AF4
:102A00000C00914200DD1400002C33D48C4205DA16
:102A1000411C095D082901DB0F2100E00021220093
:102A200024AB9B1801E0641E5B1E521E1E788E4272
:102A3000F9D00F2904D1411C895C491C401C8154E8
:102A4000002A04D524AD641C0198001D0190611E6C
:102A500010D46A186846007813783033DEB23A2E04
:102A600001DBC318C6331370491E521E0029F3D56B
:102A7000694608700E98002800D4B9E0601E0E90D8
:102A8000B6E07F007F080198684948436849FFF72E
:102A90008DFB019007200199401A002805DD0200F6
:102AA0003000390000F072FB0AE042420020614928
:102AB00000F06CFB02000B003000390000F090FDCC
:102AC0006A469278662A02D1019A0A3200E006220A
:102AD0000E9B9A18142A00DD142224AB30241C709B
:102AE0005C1C02E030A803C8139A002A40DD30AB1A
:102AF00003C3139230A803C800F06CFC2E90064666
:102B00000834042530000A21FFF764FB0F00300071
:102B10000A21FFF75FFB06003037601E07703000A8
:102B20000A21FFF757FB0F0030000A21FFF752FB85
:102B30000600A41E303727706D1EE3D108341398A9
:102B4000083813900028CDDD2E9800F05BFC0200C1
:102B50000B0030A803C800F0CCFC0022364B00F07C
:102B6000A0FD30AA03C2C5E7FFFFFFFFFFFFFF7F05
:102B70002F98201A24A94D1C04E0401E0199491EDB
:102B800001916D1C29783029F7D06946897866292A
:102B900002D10199491C06E069468978652901D16D
:102BA000149900E000210E9A5418A04200DA441E45
:102BB000002C1DD4844204DA285D342801DD39213B
:102BC00000E030212200681E831801E0641E5B1EB5
:102BD000521E1E788E42F9D0392902D1A95C491CB7
:102BE000A954002A04D50500641C0198401C0190DA
:102BF000019E1395684600786946487000F014FEFF
:102C0000406A0078694608700E9D20B2002804DCF6
:102C1000149C0548784410301390684680786628E4
:102C20000CD1761C24E000BFD03300009775000063
:102C3000A08601000000F03F84D797416846807865
:102C4000672846D130B20321C943884247DBA842F6
:102C500045DA761C02A8008F1299C0B2084203D14F
:102C600020B2A84200DC050030B22D1A00D50025A4
:102C700037B2002F00DDBAE00898411C08913021DE
:102C8000059A1154002D05DC02A8008F1299C0B2DC
:102C9000084206D00898411C089169460978059AAF
:102CA00011547842854200DA6E4236B270420B907F
:102CB000AD1920B2854200DA2C0024B2099422001A
:102CC00013990598089BC018FFF762FA281B0C900F
:102CD000DAE068464078612818D170201BE020B205
:102CE000A84206DA02A9098F129AC9B2114200D18C
:102CF00005006D1E00D5002568464078672802D182
:102D00006520694607E04520694604E0684640784A
:102D1000412801D1502048700898411C089113990E
:102D20000978059A11541398411C002D05DC02A85E
:102D3000008F129AC0B2104219D00898421C089213
:102D40006A461278059B1A54002D10DD641E20B2CD
:102D5000854200DA2C0022B20598089BC018FFF7C4
:102D600017FA24B2089800190890281B0B900598B0
:102D70000899401869464978017031B2002903D496
:102D80002B214170871C03E02D224270871C4E428C
:102D9000002412AD300008E00A21FFF707FA30AA3C
:102DA00003C229703098641C6D1C00B20028F3DC4B
:102DB000012C08DC6846407820210143652902D1B6
:102DC000302038707F1C002C09D1302038707F1CD7
:102DD00007E0641E12A8005D303038707F1C002CA4
:102DE000F7DC059808994018381A09904CE020B291
:102DF00031B288421DDA22B213990598089BC01897
:102E0000FFF7C6F924B2089800190890391B0B91F6
:102E1000002D05DC02A9098F129AC9B2114206D011
:102E200069460978059A11540998401C09900C9537
:102E30002AE032B213990598089BC018FFF7A8F949
:102E40000898C0190890A41B002D05DC02A9098F61
:102E5000129AC9B2114205D0411C089169460978FD
:102E6000059A115420B2854200DA2C0022B2139840
:102E7000C1190598089BC018FFF78AF924B2089871
:102E800000190890281B0B9002A83821405C1421DF
:102E90000140102900D0C2E00798089940180B990A
:102EA0004018099940180C9940180F99884200DB86
:102EB000B5E0081A0A90B2E002AA3A20105C622833
:102EC00008D068280ED06A2814D06C281DD071282C
:102ED00010D01AE0349801680868091D349B196005
:102EE000C0B218E0349801680868091D349B196065
:102EF00080B210E034980368DB1D072083433498C8
:102F0000036003CB349C236006E0349801680868B2
:102F1000091D349B1960002102AB03C3108F129965
:102F2000C0B208425BD002A803C8002901D1002822
:102F300055D0684600782021014378294FD1079861
:102F400015A930220A54401C421C07926A46127886
:102F50000A5444E002AA3A20105C622808D068288B
:102F60000ED06A2814D06C281DD0712810D01AE019
:102F7000349801680868091D349B196040B218E054
:102F8000349801680868091D349B196000B210E08C
:102F900034980368DB1D072083433498036003CB18
:102FA000349D2B6006E0349801680868091D349B45
:102FB0001960C11702AB03C3002902DA07982D215B
:102FC00009E0108F204202D007982B2103E0C007B0
:102FD00005D50798202115AA1154401C079015A863
:102FE0000799401805906846017802A800F03CF85F
:102FF00015E014980790349800680168001D349A11
:10300000106015A801700AE0252015A90870149811
:10301000079068460078002801D04A7007940F98FE
:103020000799401A0A99401A0899401A0B99401AB0
:103030000999401A0C99401A019002A83821405C65
:10304000400701D5FFF733FA202069460870019840
:10305000002801DCFFF72BFA019C329DFFF71AFADA
:103060000020C04335B0F0BDF2B586B0040025693C
:103070006F2901D1082707E008462021014378295C
:1030800001D00A2700E010273C2603CC083C04AA04
:1030900003C26A46127E642A03D06A46127E692AF7
:1030A00009D1002907DA04A803C800220023121A54
:1030B0008B4104A80CC004A803C800290DD1002826
:1030C0000BD1206B002808D1082F3DD13820205C7F
:1030D000000739D53B26302035E00294009504A83E
:1030E00030C8761E0196200029003A00FB1700F038
:1030F000A1FB3032D0B23A280DDA00988255200078
:1031000029003A00FB1700F095FB04000D0007D1E1
:10311000002C05D10AE06846007E8218AF32ECE749
:103120000298C068009989198842DAD3029C009DF0
:10313000082F09D13820205C000705D5A85D30286C
:1031400002D0761E3020A8553C20801BA061A91912
:10315000E160216B884206DA081A2062208F1C4940
:103160000140218710E000290ED53821615C14222E
:103170000A40102A08D1616B6269891A226A891A89
:10318000081A002800DD206207B0F0BDF8B500265F
:10319000104F04000D00009214E0C00707D5320064
:1031A0003B002000290000F07CFA04000D0000988C
:1031B000401000903000390032003B0000F071FAFE
:1031C00006000F0000980028E7D120002900F4BD78
:1031D000EFFF00000000244010B503000C001100B8
:1031E000A0689847A060002804D0E06A401CE06214
:1031F000002010BD0020C04310BDF8B50024002BF6
:1032000011D007000E0014001D002178B068B847E7
:10321000B060002809D0F06A401CF0620020641CF5
:103220006D1EF2D104002000F2BD0020C043F9E77A
:10323000C9B202788A4203D0401C002AF9D100208A
:103240007047FEE780B5002801D100BF07A00649FE
:103250000B68002B03D022220021984701E0FEF7E3
:1032600043FF222002BD0000D4030020636F6E7371
:10327000747261696E742068616E646C65723A2064
:10328000626164206D65737361676500431C01783A
:10329000401C0942FBD1C01A7047FEE7C9B2521E5A
:1032A00005D30378401C8B42F9D1401E70470020A3
:1032B000704710B5144600F002F8226010BD4A00B5
:1032C00053155B1C08D0520D06D003231B02FE3A97
:1032D000D21A1305C91A70470022704730B401246E
:1032E00064054D00EC420BD85D00EC4208D80C00A0
:1032F0001C4364000443144304D2994200D1904219
:1033000030BC7047FCD08B42FAD18242F8E730B42F
:10331000012464054D00EC420BD85D00EC4208D856
:103320000C001C4364000443144304D28B4200D1BC
:10333000824230BC7047FCD09942FAD19042F8E703
:10334000124217D40023DB435B0D9C464B005B0D00
:1033500006D0634504D09B18634502D21205891834
:1033600070476246090D11430905002000B500BFF2
:1033700000BF00BD52424B005B0DF1D05B1C5B05F2
:10338000EED25B0D934102D91205891A70470BD119
:103390000B031B13C90FC907821C002043411343B1
:1033A000E4D912051143E1E7C90FC9070020DDE7A1
:1033B000F4464A1805D200F00FF801D580174008EE
:1033C000604700F009F80121C907884200D90800C8
:1033D000404260474A1812D2400DC90208430121F9
:1033E000C9070843520D40210901521A521C06D444
:1033F00052421F3201D4D0407047C017704700209E
:103400007047FEE7010042221201D21E004207D09F
:1034100002D4521E0018FCD5C10A400512058918B5
:10342000704700000100EED54042F446FFF7EBFF85
:103430000122D207114360478B4200D1824205D955
:103440008446100062468C4619006346DF184C180B
:10345000640D7F0D3AD0661C760537D0E61B352EFD
:1034600034DCDB022B43DB0A0C0DC9022943C912F1
:10347000202E0DDB1700203E06D01F00F741F34041
:103480005F400026012A7741C01871410DD217E034
:103490001700F741F2405740F3415A40B340F34020
:1034A0005A400026801859410AD3A21C52050FD059
:1034B000C207012F724117004008CB071843490883
:1034C000641C24054208AF4170416141F0BC704763
:1034D000641C21050020F9E76B4010E06B40ABE76E
:1034E000F742F3D1E943F1E72442EFD10020002174
:1034F000ECE7F0B40125ED070F005F40EED40C00BF
:10350000871A9C4105D2C01BA141D2196341694071
:103510006B40AE0ADF184C18F442E1D2640D7F0D07
:10352000E2D0E61B362ED1DCDB022B43DB0AA446BD
:103530000C0DC9022943C90A012E28DC04D1D60783
:103540005208DF073A435B08EF0A764290419941FF
:1035500014D039423BD1B61940414941761C394219
:1035600004D1761C001849413942FAD0B943674664
:10357000B74208D9A41B24052143A7E70042EAD19A
:103580003642E8D1A2E7E40AE10700209EE7202EB8
:103590000BDD203E1F00F340F7415F40012A00226F
:1035A00057417E42984191410BE01700F741F240AC
:1035B0005740F3415A40B340F3405A407E42904155
:1035C00099410A0303D2641EB619404149410027BC
:1035D000641E24054208AE4178416141F0BC704749
:1035E000F0B40E005E400125ED072E40B446AE0A51
:1035F000DF184C18F4423BD2F74241D2640D43D05D
:103600007F0D38D0E41BC902DB0229432B43CF0ACC
:10361000DB0A0600B61A9F4104D2641EB6197F4128
:10362000B6185F416812800D24180018844222DC0D
:10363000E80C0021B6197F41B61A9F4102D2B61894
:103640005F413F1C40414941F4D3241C21DD240546
:10365000B6197F41B61A9F4105D33743C607374392
:103660000026012F7041614166463143F0BC70472E
:10367000FCD1F74205D20020C14349054908F3E7D0
:1036800004D00020C143F1E77F0DFAD0002061464D
:10369000ECE72442FAD1401C61410F03F6D300202D
:1036A000E2E7F0B50E005E400125ED072E40B4467E
:1036B000AE0ADF184C18F44208D2F7420ED2640D5D
:1036C00001D07F0D12D100206146F0BD05D1F74237
:1036D00001D87F0D05D10020C143F0BDFBD1640DA1
:1036E000F9D00020C143490549088FE0E419C90217
:1036F000DB0229432B43DB0A460DC00231438E46D1
:1037000030B487B295B27D432E0CADB2140C7C431D
:10371000A419260C240425439CB27C43A419190C3B
:103720007943270CC919A4B20F043C43090C000CBF
:1037300097B247432E0CBE193543ADB2170C474321
:10374000360CBF19A6B2BF193E043543240C3E0CFB
:1037500036199FB24743BF19BCB23E0C89191F0CE2
:1037600047437F183E043443390C704680B297B209
:1037700047432E0CBE193543ADB2170C4743360CE8
:10378000BF19A6B2BF193E043543240C3E0C3619AE
:103790009FB24743BF19BCB23E0C89191F0C474367
:1037A0007F183E043443390C77463F0C90B278437F
:1037B0002E0C80190604ADB22E43050CA0B22D18B4
:1037C000120C7A435019020C80B2240CA4189AB23D
:1037D0007A43121914042043120C89181B0C7B43E2
:1037E000C91830BCEF0A394203D1B61940414941EA
:1037F000641E6F12BF0DE41B0BDBFF19BC4211DA14
:10380000240500274208AE417841614166463143B4
:10381000F0BD641C05D1401C6141CF0201D34908B1
:10382000F4E750E75DE7FEE701487047000000005D
:103830001800002012422DD0994231D970B50025D0
:103840001B4209D00C00002112E01100FEF7C2FC5F
:103850000A000021002370BD0942F6D00024012691
:1038600049186441944200D3A41A7641F8D3310038
:10387000012601E0764109D2001864416D41A41A85
:103880009D41F7D2A4185D41B619F5D3300022004E
:103890002B0070BD1B42CFD108B500F009F808BD60
:1038A00001D19042CAD202000B00002100207047D3
:1038B0007047FEE7F8B5040001D10120F2BD822770
:1038C0007F000025606A002804D16068B84203D0F8
:1038D000E56101E025616561A56226005C367078CE
:1038E000002803D13570200000F0C6FB0220707064
:1038F00020680168402291430160E368E022D20021
:10390000F0200001934203D90021834204D104E056
:1039100080214901934200D0A562012263681F40C3
:10392000BC46A76884231B023B4067463B439C463A
:10393000277C02231F4063461F43636913403B43B8
:103940009C46A76953021F4063461F43BC46277F1E
:1039500038233B4067463B439C462023E75C80235B
:103960001F4063461F43BC46A36A57033B4067465C
:103970003B4327683B60A3691F0C04231F40BC46E0
:103980002423E35C10273B4067463B439C4634239B
:10399000E75C08231F4063461F43E3681840384331
:1039A0000143206841602068C169034B0B40C3613B
:1039B000756072700020F2BDFFF7FFFFF8B584B0AC
:1039C000050000206C4620702C004434607E0128E5
:1039D00001D00220B7E0042602916846828003935A
:1039E00068688221490088420DD1A86800280AD160
:1039F00066760398009068468388029A11462800EC
:103A000000F0B0F8A8E0207E012801D10220A3E058
:103A10000127277600F0A0FB0299002903D0694610
:103A20008988002902D16846077091E066760021F6
:103A3000E1610299296469468988218069468988FB
:103A400061800021A963A987E987A160E1602A68F4
:103A50004249EB688B42536802D3694E1E4001E035
:103A6000B6021E435660AA68FB039A4209D12A682F
:103A700013684026B34313602A681368384E1E400B
:103A800016602A68402316681E4002D11668334328
:103A900013600022D2430192120C6B465A80EA68EE
:103AA0008A42039E22D207000AE0007B296C08703C
:103AB000286C401C286460886946498840186080EA
:103AC0006088002832D028688168C907EDD400F0EA
:103AD00043FBC01BB04206D301988642F0D00320BE
:103AE0006946087032E0002EEAD1F8E707000AE0E4
:103AF000C068296C0880286C801C2864608869462E
:103B0000498840186080608800280FD02868816844
:103B1000C907EDD400F020FBC01BB04203D30198CD
:103B20008642DCD1EFE7002EEDD1D8E72800310046
:103B30003A0000F021FA002801D02020E061E0697D
:103B4000002803D001206946087001E0012060765A
:103B5000002020766846007805B0F0BD010700001F
:103B6000FFBFFFFFF2B584B00400170001200390EF
:103B700000206946087020004430007E012801D1F1
:103B8000022011E11D000126210044310E7600F0D3
:103B9000E3FA029020004430417E280001290BD036
:103BA000626882235B009A4204D1A268002A01D194
:103BB000042901D00220EAE00499002903D0002F53
:103BC00001D02A0002D168460670E7E022004432A4
:103BD000537E042B01D0052353760023D361276441
:103BE00055801580A163E587A5879360D36022681F
:103BF0006E49E3688B42536804D3014D1D4003E0D6
:103C0000FFEFFFFF35031D43556022684023156811
:103C10001D4002D115682B43136063680022019296
:103C20000A9AE5688D424ED3002B01D0012809D1B4
:103C3000A06B00882168C860A06B801CA063E08F27
:103C4000401EE0870A92039E029DE08F002804D167
:103C500020004430408800284DD0216854488A68AC
:103C600092070ED5E28F002A0BD0002E09D0A26B4E
:103C70001288CA60A16B891CA163E18F0918E187D2
:103C8000019E21688A68D2070ED5220044325388EB
:103C9000002B09D0C968236C1980216C891C216410
:103CA000518808185080012600F056FA401B0A99E6
:103CB0008842CAD308460021C9438842C5D00320A0
:103CC0006946087066E0002B01D0012809D1A06B7D
:103CD000007821680873A06B401CA063E08F401E31
:103CE000E0870A92039E029DE08F002804D1200005
:103CF00044304088002836D021682D488A689207D1
:103D00000ED5E28F002A0BD0002E09D0A26B1278BC
:103D10000A73A16B491CA163E18F0918E187019E19
:103D2000216801228B6813400ED0230044335F8842
:103D3000002F09D0097B266C3170216C491C21644D
:103D4000598808185880012600F006FA401B0A9985
:103D50008842084604D30021C9438842AFD1C3E753
:103D60000028C1D1ABE70A992A00200000F040F9F1
:103D7000002806D001206946087020202100443127
:103D8000C86120004430C069002803D00120694682
:103D9000087003E001202100443148760020210012
:103DA000443108766846007805B0F0BD0107000090
:103DB000FFFF0000FEB582B006000A9C1D4600F021
:103DC000CBF9281A071900F0C7F9694909684901B0
:103DD000090D7943009100240125019006E0009827
:103DE000002800D100270098401E009030688068AD
:103DF000029901400298814201D1012000E0002097
:103E00006946097B884235D004980021C94388421D
:103E1000ECD000F0A1F90199401AB84201D2002F6C
:103E2000DDD130684168E0229143416070688221B1
:103E3000490088420BD1B068E903884202D04909A1
:103E4000884204D1306801684022914301606803D0
:103E5000B16A814208D131680A68464B13400B6051
:103E600031680A681043086030005C3045700470A7
:103E7000032000E0002005B0F0BDFCB585B00700D0
:103E80000E000C9D002400206946087006990091E0
:103E900000F062F90099081A4019009000F05CF9EE
:103EA00039680C31009A324B1B6823256B431B0D7C
:103EB0005A4301923D000296059F009E0490039193
:103EC00006E00198002800D100260198401E0190CC
:103ED0002868806802990140B94245D00298C02103
:103EE000C900884207D1002F05D1039800786946A0
:103EF00008706846007806980021C9438842E7D0D8
:103F000000F02AF90499401AB04201D2002ED8D10B
:103F100028684168E0229143416068688221490035
:103F200088420CD1A86880210902884202D0490940
:103F3000884204D1286801684022914301608020B2
:103F40008001A96A814208D129680A68094B134097
:103F50000B6029680A681043086028005C30012162
:103F600041700470032000E0002007B0F0BD0000A5
:103F700014000020FFDFFFFFFEB5040080273F0292
:103F8000822676006068B0420AD1A068B84202D0AA
:103F90007B09984204D1206803684025AB43036045
:103FA00001920291202501980090029B002280211D
:103FB0002000FFF7FFFE002813D16068B04215D142
:103FC000A068B84202D0690188420FD101980090E0
:103FD000029B0022C021C9002000FFF74EFF0028ED
:103FE00004D0206E054325660320FEBD0020FEBDE3
:103FF000F8B504000F001600202500963B000022B3
:10400000C0214901FFF739FF002812D100963B007B
:10401000002280212000FFF7CDFE002809D1009664
:104020003B000022C021C9002000FFF726FF002826
:1040300003D0206E054325660320F2BD80B54248BB
:10404000012142680A434260426811400091009990
:104050008021490502680A4302600068014000911E
:104060000098002203210120C04300F098F8C020EE
:10407000C00000F0D1F801BD10B586B004001422D4
:10408000002101A800F0D6F82068304988421ED1EE
:104090002F48810CC2680A43C260C2681140009177
:1040A0000099012102680A43026000680140009102
:1040B0000098E0200190022002900020039003214C
:1040C0000491059001A9A020C00500F0BDF806B03C
:1040D00010BD30B599B004001422002101A800F0F1
:1040E000A9F84C22002106A800F0A4F8206819497C
:1040F000884226D1022406940025089506A800F0DF
:1041000089F9002801D000F065FC1148210482687B
:104110000A4382608268114000910099012102687F
:104120000A43026000680840009000980C2001904B
:10413000029403950495059101A9A020C00500F003
:1041400083F819B030BD00003C100240003001403F
:10415000341002400044004001484068704700BFEE
:104160000800002010B5C20018231340FF249C4013
:10417000E2438907090E9940030004D419489B08BB
:104180009B00C01806E0184B0007000F0838800895
:104190008000181803681A401143016010BD80B5F3
:1041A000FFF7E0FF01BD0000010005D40121C006BA
:1041B000C00E81400D480160704710B5401E80213F
:1041C0004904884201D3012010BD094C60600321DD
:1041D0000020C043FFF7C6FF0020A0600721216038
:1041E00010BD000000E400E01CED00E000E100E094
:1041F00010E000E010B500240B480168820D0A436E
:104200000260032000F02EFC002801D0012401E010
:10421000FFF714FF200010BD04490A68044B134047
:104220001843086070470000002002400000014071
:10423000FFF9FFFF10B50400080011000200200084
:10424000FDF7E6FF200010BDFFB500220F2302930B
:104250002DE0052603E0674EB042FAD10426AE40B9
:104260002643009C2660644C2568DC4325404E684C
:10427000F60200D51D43604E3560756825404F68D5
:10428000BF0200D51D4375605C4D6E6826404D68C9
:10429000AD0300D51E43594D6E602E6834404E6804
:1042A000F60302D526001C0034432C60521C0B6818
:1042B0001C00D4407DD0012595402B40F6D0540001
:1042C0000327A740FE4301964E68B707BF0F012F93
:1042D00003D0B607B60F022E0ED18768019E3E406E
:1042E000CF68A740374387604668AE434D68EF0606
:1042F000FF0F9740374347600D79AD07AD0F032D92
:1043000025D0C568019E2E408D68A5403543C56007
:104310000D79AD07AD0F022D19D1D508AD004519A6
:104320002E6A039697001C263E406F463E70039E01
:10433000B446029F6E463678B7406646BE43B446E2
:104340000F696E463678B740664637432F62076876
:104350000326019D3D404F683740BC462700644618
:10436000BC402C4304604C68350425409ED0244C4E
:104370009508AD0064190094009C2468D7001825A6
:104380003D40029FAF40BC43A027FF05B84201D18A
:10439000002664E71B4FB84201D101265FE71A4FA0
:1043A000B84201D102265AE7184FB84200D052E76E
:1043B00055E7FFBD0069084000D00120C0B270473A
:1043C000002A01D0816170478162704770B5040096
:1043D00025000F4E3068284003D03560200000F0E3
:1043E000EBFA7068284003D07560200000F0EBFA0B
:1043F00070BD0000001000500018024080180240FC
:10440000601802400004005000080050000C0050EA
:104410000C180240F0B585B0040000206A46107008
:10442000984D02210491216889035AD50290802079
:104430004005296B014008D1296B01432963296B91
:1044400008400190019801200290A80D03908E4829
:10445000019000680399014301980160FFF77CFE19
:104460000600019800680399014008D1FFF774FE27
:10447000801B0328F5D30320694608702AE0296DC4
:10448000C02080000840814F00280ED0216C884257
:104490000BD0286D3840296D802252020A432A65CC
:1044A000296D7B4A0A402A652865C0070DD5FFF7AC
:1044B00053FE0600286D0499014006D1FFF74CFE1B
:1044C000801B74498842F5D3D5E7286D0740206CDE
:1044D000384328650298002803D0286B6E490140B4
:1044E00029630322D2432078C00704D5A86C10406A
:1044F00061680143A96420680499014005D0A86C53
:104500000C218843A1680143A9642078400705D5A0
:10451000A86C30218843E1680143A9642078C00673
:1045200005D5A86C5D49014020690843A86420684E
:10453000C00405D5A86C5549014060690843A864CA
:104540002068800505D5A86C55490140A06A08433C
:10455000A8642068400505D5A86C52490140E06A6E
:104560000843A86450482178890604D5A96C014005
:10457000A3690B43AB642178490605D5A96C4B4B65
:104580000B40E1691943A964216849040ED5A96C5F
:1045900089008908236B0B43AB64216B8023DB0507
:1045A000994203D129689B0B0B432B6021680903B7
:1045B00005D5A96C40239943636B0B43AB64802101
:1045C00049048B082668B6020BD5AF6C384E3E40C6
:1045D000A76B3743AF64A66B9E4202D12E680E4391
:1045E0002E60266833400BD0AB6C324E1E40E36B1E
:1045F0003343AB64E36B8B4202D12B680B432B60DC
:104600000B0A266836050AD5EE6C3240266A164338
:10461000EE64226A012A02D12A681A432A60CA0A71
:10462000266816400BD0EE6C0C27BE43676A3743F2
:10463000EF64666A042E02D12E6833432B60236830
:104640000B400AD0EB6C1840636C0343EB64606C66
:10465000904202D1286808432860206880010CD568
:10466000E86C0A4A0240A06C1043E864A06C0A0C93
:10467000904202D12868014329606846007805B05D
:10468000F0BD00000C10024000700040FFFCFFFF76
:10469000FFFFFEFF89130000FFFFFFEFFFF3FFFFA7
:1046A000FFFFF3FFFFFFCFFFFFCFFFFFFF3FFFFF46
:1046B000FFFFBFFFFFFFFFFE10B51400B24B92B229
:1046C000B24800F02BFA200010BD00007CB5002499
:1046D0000094684600F098FE06000099BEA000F025
:1046E000BFFFAB4D287801280AD1102E08D1102227
:1046F000BCA1009800F0C8FF00280ED12C700CE07F
:104700006878012809D10C2E07D10C22B9A1009894
:1047100000F0BAFF002800D16C70009800F0CAFFCA
:1047200073BD0000F8B586B0FFF764FD00F0A1F896
:1047300014216846FDF76AFD0421964802680A4381
:1047400002600268114005910599202102680A4320
:104750000260026811400591059901240168214316
:1047600001600168214005910599022601683143E5
:1047700001600068304005900598874F0022874906
:104780003800FFF71DFE6003009088204003019071
:104790000025029569468248FFF756FD11200090DA
:1047A00001940295039669463800FFF74DFDA0037A
:1047B000009001940295039569463800FFF744FD87
:1047C0006002009084208003019002946946A0203A
:1047D000C005FFF739FD08200090C4208003019038
:1047E000029569463800FFF72FFD002203210620BD
:1047F000FFF7D5FC0620FFF7D7FC00220321072096
:10480000FFF7CDFC0720FFF7CFFC00F06BF800F0BE
:104810008AF80095634800F09DFC694678A000F096
:1048200017FD69467AA000F013FD69467BA000F0F1
:104830000FFD574D01202870694600BF7BA000F096
:1048400007FD28780028FCD16C7069467AA000F03A
:10485000FFFC68780028FCD1694600BF7EA000F00C
:10486000F7FC6946504800F0F3FC009800F022FF86
:10487000FEE730B593B03C2104A8FDF7C7FC6846BD
:1048800000210022002300241EC08020800000F0B0
:1048900019FF02240494E0010790002508954020A8
:1048A00009900C940D940E9508200F9080031090A1
:1048B000000211900001129004A800F029FF0028C6
:1048C00001D000F087F8072000900194029503952D
:1048D0000221684601F030F9002801D000F07AF892
:1048E00013B030BD80B531483149016082214900A3
:1048F000416000218160E022D200C260016141611B
:10490000802292008261C16101624162816207225C
:10491000C262016308214163FEF7CCFF002801D089
:1049200000F058F801BD10B5184C22482060E12075
:10493000400260600020A060E06020610C216161A5
:10494000A061E06120626062A062200000F0B0F827
:10495000002801D000F03EF80021200001F01FFAED
:10496000002801D000F036F80021200001F030FAD4
:10497000002801D072B6FEE7200001F0F3F900280C
:1049800001D072B6FEE710BD1027000070020020B3
:10499000D8030020341002400004005011400000F1
:1049A00000080050CD460008746100080403002090
:1049B0000030014000440040082800D0704780B516
:1049C00000F053FD01BD082800D0704780B500F00D
:1049D0005BFD01BD72B6FEE75265706F72743A20DE
:1049E000257300002B43573A5343414E5F444F4ECB
:1049F000450D0A002B43573A474F5449500D0A00C2
:104A000041542B43574D4F44453D312C300000005D
:104A100041542B534C434C4454494D0041542B4377
:104A2000574C41504F50543D312C330041542B438F
:104A3000574C41503D30000041542B43574A4150A0
:104A40003D22544F4D434154222C226672656573BA
:104A500063616C653222000041542B43495053542A
:104A6000413F000070B5060000240F4D2978002951
:104A700016D0FA208000FDF7ADFB01000B4800685E
:104A8000FDF7A8FBFFF799FB002809D1042E07D2F8
:104A9000002231000020C043FFF781FBAE6000E040
:104AA0000124200070BD00BF080000201400002079
:104AB00038B5040001D1012032BD25008435686875
:104AC000002803D128702000FFF703FB2420686032
:104AD00020680168012291430160A06A002802D089
:104AE000200000F0D1F9200000F086F8012811D054
:104AF00020684168084A0A404260206881682A228A
:104B0000914381602068016801220A43026020000D
:104B100000F024FA32BD0000FFB7FFFFF1B584B00A
:104B20001F0006465436706B202861D10C000FD050
:104B300068460280002A0BD00498806880214901D1
:104B4000884207D104980069002803D1E00701D505
:104B500001204EE00025F56321207063FFF7FCFA89
:104B600001006846008830806846008870803A00FE
:104B70000498806880235B01984209D104980069F9
:104B8000002805D12500049F0192029104001AE03B
:104B90002000F8E721788162641C11E00198009000
:104BA000029B00228021380000F042FA00281BD12D
:104BB0003868002CEED12988C905C90D8162AD1C69
:104BC0007088401E708070880028E7D13800029BF2
:104BD000019900910022402100F02AFA002803D117
:104BE00020207063002004E020207063032000E098
:104BF000022005B0F0BD0000F8B5050000242B68C8
:104C0000186891490140A868084329690143686907
:104C10000843E9690143196058688C490140E86814
:104C200008435860A8698A498B4205D089498B425C
:104C300002D00100286A08439968874A0A40104355
:104C40009860D86A0F218843696A0143D962834812
:104C500080210902824E1022824FBB422ED136683B
:104C6000B607B60F30D0022E36D044D3032E31D043
:104C7000774EB34202D0774EB34242D1002A08D0D9
:104C8000022A0BD0042A00D192E0082A00D192E037
:104C9000CEE001F040F8002800D1CAE072496A6A0B
:104CA0005200895AFDF796FA6A68510089188842BD
:104CB00003D31103814200D37FE0B9E06B4FBB42C5
:104CC0000CD136680C27374070D0042F13D0082F32
:104CD00002D00C2F56D0CBE70222C9E79C4FBB4233
:104CE0000BD136683027374060D0102F03D0202FEB
:104CF000F2D0302FEEE70422BAE7964FBB4229D11B
:104D00000022954F5AA6EB698B426AD1002A06D041
:104D1000022A08D0042A5FD0082A60D088E000F078
:104D2000FAFF002869D069680091696A4900715AE0
:104D3000FDF750FA40000099490840180099FDF726
:104D400049FA01001039B94272D207400007400FFA
:104D5000384365E0AD4FBB42D2D0AD4FBB42CFD060
:104D60003B4FBB4210D13768C02636013E401DD0B4
:104D70004F09BE42BFD00F09BE42ADD0C0273F0190
:104D8000BE4200D1082273E7324FBB42B9D1376827
:104D9000C026B6003E4009D0CF09BE42ABD08F0935
:104DA000BE4299D0C027BF00BE4293E700225FE712
:104DB00000F070FF6FE7080070E7070E060250086A
:104DC0000021801979410023FEF734FD91494118F3
:104DD000914A91422CD223E000F05CFFA1E7080049
:104DE000A1E7002A06D0022A08D0042A1BD0082AEC
:104DF0001CD01DE000F08FFF00281AD069680091D8
:104E0000696A4900715AFDF7E5F9009949084018A7
:104E10000099FDF7DFF901001039B94208D280B2DC
:104E20002968C86005E000F035FFE5E70800E5E720
:104E30000124280068300121418001800021C160E7
:104E400001612000F2BD0000F369FFCFFFCFFFFF3B
:104E50000080004000840040FFF4FF110024F400B3
:104E60005410024000380140704E000800440040D9
:104E7000010002000400060008000A000C001000F7
:104E800020004000800000012821415C090706D570
:104E900001684A68614B1340826B1A434A602821BB
:104EA000415CC90706D501684A685D4B1340C26A78
:104EB0001A434A602821415C890706D501684A687F
:104EC000584B1340026B1A434A602821415C490742
:104ED00006D501684A68544B1340426B1A434A6036
:104EE0002821415CC90606D501688A684F4B1340EA
:104EF000C26B1A438A602821415C890606D5016885
:104F00008A68744B1340026C1A438A602821415C02
:104F1000490611D501684A686F4B1340426C1A4329
:104F20004A60426C80235B039A4205D14A686B4B0E
:104F30001340826C1A434A602821415C090606D559
:104F400001684A68664B1340C06C1843486070475C
:104F500000480040004C0040F0FF0000FEB5060095
:104F6000370084370024FC60FFF7F6F80190202515
:104F700030680068000717D55A480090019B00224E
:104F80002904300000F054F800280DD0EFF3108011
:104F9000012181F3108831680A6880239A430A60EE
:104FA00080F310887D6026E030680068400725D5D2
:104FB0004C480090019B00226904300000F038F852
:104FC00000281BD0EFF31080012181F31088316895
:104FD0000A68454B13400B6080F31088EFF3108094
:104FE000012181F3108831688A6801239A438A601D
:104FF00080F31088BD603C700320FEBD7D60BD6005
:10500000F46634673C700020FEBD00000050004094
:10501000003C014000FDFFFF00FD0F00FF7FFFFF90
:10502000FFFFFDFFFFFFFEFFFFFFFBFFFFEFFFFFA7
:10503000FEB580273F01082400250600019168463F
:10504000027002933068C069019901400198814261
:1050500001D1012000E0002069460978884236D15C
:1050600008980021C9438842ECD0FFF775F80299EF
:10507000401A0899814201D3002901D10320FEBDC5
:10508000306800684007DDD501988028DAD04028D4
:10509000D8D03068C0692040306803D1C06938403A
:1050A000D0D009E00462300000F020F830008430F5
:1050B000C46005700120FEBD30680762300000F05A
:1050C00015F8300084302021C1600570D6E700203B
:1050D000FEBD0000FFDFFFFFFFFFEFFFFFFF9FFFB1
:1050E000FFFFF7FFFFFFFF01DFFEFFFF10B5EFF34C
:1050F0001081012282F3108802681368134C1C404F
:10510000146081F31088EFF31081012282F310887C
:10511000026893680E4C1C40946081F31088C16E45
:1051200001290BD1EFF31081012282F3108802686C
:1051300013681024A343136081F3108820218C226C
:1051400081500021C166416710BD0000DFFEFFFFF6
:10515000FEFFFFEFF8B584B000240394029401949D
:10516000C649486001270846077000F0AEFEC448F3
:1051700000F08BF9002829D401A8009002AB03AA03
:105180000021002000F094F905002CD4092200BF72
:105190009AA1019800F078FA0500BA4E01D53000C6
:1051A00030E0FA20400000F0C5FE01A8009002ABFC
:1051B00003AA04211BA000F07BF9050013D4AF481B
:1051C0000770AF4800F061F9002802D50025ED43D3
:1051D0001AE001A8009002AB03AA0021002000F011
:1051E00067F9050004D5290010A000F039FA0BE09A
:1051F000062200BF14A1019800F046FA050003D072
:1052000030002C3000F02CFA9C480470039800F019
:1052100051FA029800F04EFA019800F04BFA28007B
:1052200005B0F0BD41540D0A000000004572723A0D
:10523000207370695F69666163655F747852782076
:105240003D2025640A0000000D0A4F4B0D0A0000A6
:10525000F3B585B005000020039002900190049002
:105260000027280000F096F900902800FEF70EF8BD
:1052700084B20121A01CFCF719FD060022002900C0
:1052800000F0FCFD0D2030550A2031194870A41C97
:10529000A4B288250098002831D1A11C300000F06C
:1052A0000DFA0600355530194570A41C01207349CC
:1052B000087001A8009002AB03AAA1B2300000F070
:1052C000F7F8040056D46E4D280000F0DEF80028F0
:1052D00000D588E001A8009002AB03AA00210020BD
:1052E00000F0E6F8040045D4082C1ADB082200BFC1
:1052F0003EA1019800F032FE0028E4D013E001281E
:105300000AD1E11C300000F0D9F9060035553019FA
:1053100045708570E41CC9E70228C7D00020C0434F
:105320003FE0032C08DD0422B9A101980019001FF9
:1053300000F014FE002809D0092C34D1052200BF4A
:105340002EA1019800F00AFE00282CD1049805191E
:10535000691C380000F0B2F9070022000199049896
:10536000381800F08BFD2C00002C03DD0020385590
:1053700006980760002041490870039800F09AF9E8
:10538000029800F097F9019800F094F9300000F0CD
:1053900091F9002C04D5002F02D0380000F08AF9D2
:1053A000200007B0F0BD049800190090411C38009F
:1053B00000F084F90700220001990498381800F0E1
:1053C0005DFD00980490280000F05FF800280AD4E2
:1053D00001A8009002AB03AA0021002000F068F8A9
:1053E00004009ED5C6E70024E443C3E70D0A6275B6
:1053F000737920702E2E2E0D0A0000000D0A7265A2
:105400006164790D0A000000F8B584B0060000253B
:10541000039502950195194F0120387001A800905D
:1054200002AB03AA0021002000F042F804000FD4D0
:105430000096661C01213000FCF738FC00990860DA
:105440002200019900F01AFD009909680D553400F9
:105450003D70039800F02EF9029800F02BF90198A6
:1054600000F028F9200005B0F0BD044801780029BB
:1054700000D0704780B54068804701BD0000002023
:1054800010270000FC5F0008704738B50400FEF7E5
:1054900063FE050000F036FD002807D1FEF75CFE34
:1054A000401B8442F6D20020C04332BD002032BDF2
:1054B000F1B582B00E0017001C00386800250028E6
:1054C00002D000F0F7F83D6000942068002803D077
:1054D00000F0F0F80098056008980068002803D0F4
:1054E00000F0E8F808980560300001D1082401E0D8
:1054F00034000834A5B201212800FCF7D7FB38603E
:1055000001212800FCF7D2FB0099086038680028C8
:1055100001D1002438E000990968002901D1012453
:1055200032E0310000F069F8300004D00299320016
:10553000386800F068F8012000F0EAFC00F0E2FCB6
:105540000028FBD0A2B200980168386800F0C6FCC1
:10555000002801D0022417E0009800688478002C0D
:1055600013D001212000FCF7A1FB089908600898DE
:105570000168002901D1032406E02200002000F088
:10558000ADFC002801D00424E443002000F0C0FC5E
:105590002000FEBD70B5040002253D21FDF748FE48
:1055A00006003F212000FDF743FE002E22D10028F7
:1055B00001D000251FE000BF17A1200000F0DEFC95
:1055C000002817D018A1200000F0D8FC002811D026
:1055D00018A1200000F0D2FC00280BD019A1200057
:1055E00000F0CCFC002805D019A1200000F0C6FC7A
:1055F000002800D10125280070BDAA220270552282
:1056000042708170704780B5083000F037FC01BDF2
:105610004F4B0D0A0000000041542B4546555345A1
:105620002D43464D0000000041542B4F5441464944
:105630004E00000041542B495045524653544F50A0
:105640000000000041542B534C434C4454494D003E
:1056500041542B5457545F534C45455000000000B3
:105660000EB4C0B5020003A801900020009001AB69
:105670000121044878440C30FCF7DCFD029906B0A7
:10568000084700BFA90B000010B404E0002C0ED0A6
:10569000401C491C521E002A09D00B7804789C42F9
:1056A000F4D002D20020C04302E0012000E000203C
:1056B00010BC704780B5FCF707F801BD80B5FCF75A
:1056C000CFFC02BD10B50E4C21680E4A0A400243C1
:1056D0002260610D884210D10B48006806214843C2
:1056E0000A49FCF777FD401C00E0401E616949054E
:1056F00003D50028F9D1032010BD002010BD000003
:1057000000700040FFF9FFFF1400002040420F002E
:10571000FEB505001BD0B64C2878C00719D5A16886
:1057200038200840E1688027BF02102808D1880788
:10573000800F032806D069687808814233D13AE0A7
:105740000828F8D12068074003D06868002800D1F5
:10575000E3E1287880077AD5A06838210140E26823
:10576000A448A54F10294DD19207920F022A4BD081
:10577000E968002900D194E02168084029690143C3
:1057800021602068A10D01432160FEF7E5FC0600C1
:105790002068400500D57DE0FEF7DEFC801B032875
:1057A000F6D30320FEBDA022D202914207D1216888
:1057B00082000A43226021680843206007E02068D5
:1057C000B649014021602068B54901402160686800
:1057D00000280BD0FEF7C0FC060020683840B8D186
:1057E000FEF7BAFC801B6528F7D3DAE7FEF7B4FCB6
:1057F000060020683840ACD0FEF7AEFC801B652860
:10580000F7D3CEE70029B3D12268520502D5EA6862
:10581000002A3ED0626817406A6912023A43626009
:1058200000290ED1216808402969014321609D4863
:10583000012122689204520F9140FCF7CBFCB84939
:105840000860B8480068FFF70DF9002821D1022749
:10585000287800070AD5A06838210140182930D1DE
:10586000206E384002D0A869002812D0287840075E
:1058700000D4A5E000200190A06838210140202933
:1058800041D1E06D074000D19AE0A868002800D01F
:1058900096E042E160680740686900023843606052
:1058A000D5E72068A04901402160FEF755FC0600BD
:1058B00020684005CBD5FEF74FFC801B0328F7D3AB
:1058C0006FE7A8690028206E0ED0012101432166F0
:1058D000FEF742FC0600206E3840C7D1FEF73CFCC4
:1058E000801B0328F7D35CE7012188432066FEF77D
:1058F00033FC0600206E3840B8D0FEF72DFC801B2C
:105900000328F7D34DE7F806E16B014008D1E16BBE
:105910000143E163E16B0840009000980120019091
:10592000824F3868C00512D4A00D009038680099E5
:1059300001433960FEF710FC060038680099014009
:1059400005D1FEF709FC801B0328F6D329E7A868D8
:105950000121012805D00528E06D06D1042202436B
:10596000E265E06D0143E16505E08843E065E06DD7
:1059700004218843E0650227A86800280CD0FEF7C0
:10598000EBFB0600E06D384013D1FEF7E5FB801B12
:1059900067498842F6D304E7FEF7DEFB0600E06DB8
:1059A000384006D0FEF7D8FB801B61498842F6D309
:1059B000F7E60198002803D0E06B5E490140E163FF
:1059C0002878800629D580273F04E86900282068C8
:1059D00014D0790801432160FEF7BEFB0600206861
:1059E00038401AD1FEF7B8FB801B0328F7D3D8E65E
:1059F00000100240FFC7FFFFFF80FFFFA2490140E8
:105A00002160FEF7A9FB06002068384005D0FEF7AC
:105A1000A3FB801B0328F7D3C3E6286A002855D0D0
:105A2000A16838220A40102A52D08027BF04974923
:105A30000228206838D101402160FEF78DFB060066
:105A40002068384005D0FEF787FB801B0328F7D37A
:105A5000A7E6E0688E490140686A0843A96A0143E5
:105A6000E86A00020843296B0143686B0843A96B8D
:105A70000143E1602068790801432160E068F90092
:105A80000143E160FEF768FB0500206838401DD146
:105A9000FEF762FB401B0328F7D382E6FFFFFEFF01
:105AA000FFFFFBFF0024F40001402160FEF754FBE0
:105AB00005002068384005D0FEF74EFB401B032848
:105AC000F7D36EE6E0689B490140E1600020FEBD2F
:105AD000012822D0E0688107890F6A6A91421CD1AF
